{
  "contractName": "BuddhaBank",
  "abi": [
    {
      "inputs": [
        {
          "internalType": "contract BuddhaToken",
          "name": "_buddhaToken",
          "type": "address"
        }
      ],
      "stateMutability": "nonpayable",
      "type": "constructor"
    },
    {
      "anonymous": false,
      "inputs": [
        {
          "indexed": true,
          "internalType": "address",
          "name": "user",
          "type": "address"
        },
        {
          "indexed": false,
          "internalType": "uint256",
          "name": "etherAmount",
          "type": "uint256"
        },
        {
          "indexed": false,
          "internalType": "uint256",
          "name": "timeStart",
          "type": "uint256"
        }
      ],
      "name": "Deposit",
      "type": "event"
    },
    {
      "anonymous": false,
      "inputs": [
        {
          "indexed": true,
          "internalType": "address",
          "name": "user",
          "type": "address"
        },
        {
          "indexed": false,
          "internalType": "uint256",
          "name": "etherAmount",
          "type": "uint256"
        },
        {
          "indexed": false,
          "internalType": "uint256",
          "name": "depositTime",
          "type": "uint256"
        },
        {
          "indexed": false,
          "internalType": "uint256",
          "name": "interest",
          "type": "uint256"
        }
      ],
      "name": "Withdraw",
      "type": "event"
    },
    {
      "inputs": [
        {
          "internalType": "address",
          "name": "",
          "type": "address"
        }
      ],
      "name": "depositStart",
      "outputs": [
        {
          "internalType": "uint256",
          "name": "",
          "type": "uint256"
        }
      ],
      "stateMutability": "view",
      "type": "function",
      "constant": true
    },
    {
      "inputs": [
        {
          "internalType": "address",
          "name": "",
          "type": "address"
        }
      ],
      "name": "etherBalanceOf",
      "outputs": [
        {
          "internalType": "uint256",
          "name": "",
          "type": "uint256"
        }
      ],
      "stateMutability": "view",
      "type": "function",
      "constant": true
    },
    {
      "inputs": [
        {
          "internalType": "address",
          "name": "",
          "type": "address"
        }
      ],
      "name": "isDeposited",
      "outputs": [
        {
          "internalType": "bool",
          "name": "",
          "type": "bool"
        }
      ],
      "stateMutability": "view",
      "type": "function",
      "constant": true
    },
    {
      "inputs": [],
      "name": "deposit",
      "outputs": [],
      "stateMutability": "payable",
      "type": "function",
      "payable": true
    },
    {
      "inputs": [],
      "name": "withdraw",
      "outputs": [],
      "stateMutability": "nonpayable",
      "type": "function"
    }
  ],
  "bytecode": "0x608060405234801561001057600080fd5b5060405161056138038061056183398101604081905261002f91610054565b600080546001600160a01b0319166001600160a01b0392909216919091179055610082565b600060208284031215610065578081fd5b81516001600160a01b038116811461007b578182fd5b9392505050565b6104d0806100916000396000f3fe60806040526004361061004a5760003560e01c8063179fc99f1461004f5780633ccfd60b1461008f57806373732024146100a6578063d0e30db0146100e6578063ff87930a146100ee575b600080fd5b34801561005b57600080fd5b5061007c61006a3660046103e8565b60016020526000908152604090205481565b6040519081526020015b60405180910390f35b34801561009b57600080fd5b506100a461011b565b005b3480156100b257600080fd5b506100d66100c13660046103e8565b60036020526000908152604090205460ff1681565b6040519015158152602001610086565b6100a46102ea565b3480156100fa57600080fd5b5061007c6101093660046103e8565b60026020526000908152604090205481565b3360009081526003602052604090205460ff1615156001146101745760405162461bcd60e51b815260206004820152600d60248201526c1b9bdd0819195c1bdcda5d1959609a1b60448201526064015b60405180910390fd5b3360009081526002602052604081205461018e904261046d565b33600090815260016020526040812054919250906101b490662386f26fc100009061042e565b6101c2906301e3373161044e565b905060006101d0838361044e565b33600081815260016020526040808220549051939450919282156108fc029291818181858888f1935050505015801561020d573d6000803e3d6000fd5b506000546040516340c10f1960e01b8152336004820152602481018390526001600160a01b03909116906340c10f1990604401600060405180830381600087803b15801561025a57600080fd5b505af115801561026e573d6000803e3d6000fd5b5050336000818152600160208181526040808420848155600283528185208590556003835293819020805460ff191690559181529154815190815291820188905281018590529092507f02f25270a4d87bea75db541cdfe559334a275b4a233520ed6c0a2429667cca94915060600160405180910390a2505050565b6000341161033a5760405162461bcd60e51b815260206004820152601c60248201527f56616c7565206d7573742062652067726561746572207468616e203000000000604482015260640161016b565b33600090815260016020526040902054610355903490610416565b3360009081526001602090815260408083209390935560029052205461037c904290610416565b3360008181526002602090815260408083209490945560039052829020805460ff1916600117905590517f90890809c654f11d6e72a28fa60149770a0d11ec6c92319d6ceb2bb0a4ea1a15906103de9034904290918252602082015260400190565b60405180910390a2565b6000602082840312156103f9578081fd5b81356001600160a01b038116811461040f578182fd5b9392505050565b6000821982111561042957610429610484565b500190565b60008261044957634e487b7160e01b81526012600452602481fd5b500490565b600081600019048311821515161561046857610468610484565b500290565b60008282101561047f5761047f610484565b500390565b634e487b7160e01b600052601160045260246000fdfea26469706673582212203928ba009821b879bad32341598b53b26bddfdb8e545d197aba8905555043abd64736f6c63430008030033",
  "immutableReferences": {},
  "source": "pragma solidity ^0.8.3;\r\n\r\nimport \"./BuddhaToken.sol\";\r\n\r\ncontract BuddhaBank {\r\n    \r\nBuddhaToken private buddhaToken;\r\n\r\n    mapping(address => uint) public etherBalanceOf;\r\n    mapping(address => uint) public depositStart; \r\n    mapping(address => bool) public isDeposited;   \r\n    \r\n    event Deposit(address indexed user, uint etherAmount, uint timeStart);\r\n    event Withdraw(address indexed user, uint etherAmount, uint depositTime, uint interest);\r\n\r\n    constructor(BuddhaToken _buddhaToken) {\r\n        buddhaToken = _buddhaToken;\r\n    }\r\n\r\n    function deposit() public payable {\r\n        require(msg.value > 0, \"Value must be greater than 0\");\r\n\r\n        etherBalanceOf[msg.sender] = etherBalanceOf[msg.sender] + msg.value;\r\n        depositStart[msg.sender] = depositStart[msg.sender] + block.timestamp;\r\n\r\n        isDeposited[msg.sender] = true;\r\n\r\n        emit Deposit(msg.sender, msg.value, block.timestamp);\r\n\r\n    }\r\n\r\n    function withdraw() public {\r\n        require(isDeposited[msg.sender] == true, \"not deposited\");\r\n\r\n        uint depositTime = block.timestamp - depositStart[msg.sender];\r\n        uint interestPerSecond = 31668017 * (etherBalanceOf[msg.sender] / 1e16);\r\n        uint interest = interestPerSecond * depositTime;\r\n\r\n        payable(msg.sender).transfer(etherBalanceOf[msg.sender]);\r\n        buddhaToken.mint(msg.sender, interest);\r\n\r\n        etherBalanceOf[msg.sender] = 0;\r\n        depositStart[msg.sender] = 0;\r\n        isDeposited[msg.sender] = false;\r\n\r\n        emit Withdraw(msg.sender, etherBalanceOf[msg.sender], depositTime, interest);\r\n\r\n    }\r\n\r\n}",
  "sourcePath": "C:/Users/fsong/buddhabank/src/contracts/BuddhaBank.sol",
  "compiler": {
    "name": "solc",
    "version": "0.8.3+commit.8d00100c.Emscripten.clang"
  },
  "schemaVersion": "3.3.4",
  "updatedAt": "2021-06-04T21:30:17.963Z",
  "networkType": "ethereum",
  "devdoc": {
    "kind": "dev",
    "methods": {},
    "version": 1
  },
  "userdoc": {
    "kind": "user",
    "methods": {},
    "version": 1
  }
}